{
  "contractName": "Adoption",
  "abi": [
    {
      "constant": true,
      "inputs": [
        {
          "name": "",
          "type": "uint256"
        }
      ],
      "name": "adopters",
      "outputs": [
        {
          "name": "",
          "type": "address"
        }
      ],
      "payable": false,
      "stateMutability": "view",
      "type": "function",
      "signature": "0x43ae80d3"
    },
    {
      "constant": false,
      "inputs": [
        {
          "name": "petId",
          "type": "uint256"
        }
      ],
      "name": "adopt",
      "outputs": [
        {
          "name": "",
          "type": "uint256"
        }
      ],
      "payable": false,
      "stateMutability": "nonpayable",
      "type": "function",
      "signature": "0x8588b2c5"
    },
    {
      "constant": true,
      "inputs": [],
      "name": "getAdopters",
      "outputs": [
        {
          "name": "",
          "type": "address[16]"
        }
      ],
      "payable": false,
      "stateMutability": "view",
      "type": "function",
      "signature": "0x3de4eb17"
    }
  ],
  "bytecode": "0x608060405234801561001057600080fd5b506102f4806100206000396000f3fe608060405260043610610057576000357c0100000000000000000000000000000000000000000000000000000000900463ffffffff1680633de4eb171461005c57806343ae80d3146100af5780638588b2c51461012a575b600080fd5b34801561006857600080fd5b50610071610179565b6040518082601060200280838360005b8381101561009c578082015181840152602081019050610081565b5050505090500191505060405180910390f35b3480156100bb57600080fd5b506100e8600480360360208110156100d257600080fd5b81019080803590602001909291905050506101fa565b604051808273ffffffffffffffffffffffffffffffffffffffff1673ffffffffffffffffffffffffffffffffffffffff16815260200191505060405180910390f35b34801561013657600080fd5b506101636004803603602081101561014d57600080fd5b810190808035906020019092919050505061022f565b6040518082815260200191505060405180910390f35b6101816102a4565b60006010806020026040519081016040528092919082601080156101f0576020028201915b8160009054906101000a900473ffffffffffffffffffffffffffffffffffffffff1673ffffffffffffffffffffffffffffffffffffffff16815260200190600101908083116101a6575b5050505050905090565b60008160108110151561020957fe5b016000915054906101000a900473ffffffffffffffffffffffffffffffffffffffff1681565b60008082101580156102425750600f8211155b151561024d57600080fd5b3360008360108110151561025d57fe5b0160006101000a81548173ffffffffffffffffffffffffffffffffffffffff021916908373ffffffffffffffffffffffffffffffffffffffff160217905550819050919050565b6102006040519081016040528060109060208202803883398082019150509050509056fea165627a7a723058201d57e65f41e462e8bd2ff671ade7a0e274e6c907f27d6e0b8d4cafa1c8a0f7e50029",
  "source": "pragma solidity ^0.5.0;\n// The minimum version of Solidity required. Caret symbol means \"the version indicated or higher\"\n\n\n\ncontract Adoption {\n\n  // Defining a single variable called <adopters>. This is an array of Ethereum addresses. Arrays can be either fixed or variable, and they contain one type. Here, the type is <adddress> and the length is <16>. Notice also that this array is <public>. Also note that array getters return only a single value from a given key.\n\n  address[16] public adopters;\n\n\n\n  // Allowing users to make adoption requests via the following function. This function takes in a petId (an integer) and returns an integer.\n\n  function adopt(uint petId) public returns (uint) {\n\n    // Making sure that petId is in the range of the adopters array, which is limited to 16 members.\n    require(petId >= 0 && petId <= 15);\n\n    // If the petId is within the required range, then add the address that made the call to the adopters array\n    adopters[petId] = msg.sender;\n\n    // As a confirmation, return the petId\n    return petId;\n\n  }\n\n\n  // Write a function that returns the entire <adopters> array. We need to do this because, as mentioned above, array getters only return a single value from a given key. If we don't do this, we'd have to make 16 separate API calls in order to update all of the pet adoption statuses (not efficient).\n\n  // Note that the return type is specified as <memory>. <memory> gives the data location for the variable.\n  // Note that <view> keyword means that the function will not modify the state of the contract.\n  function getAdopters() public view returns (address[16] memory) {\n\n    return adopters;\n\n  }\n\n}\n\n\n/*\nAfter writing the above smart contract, your next steps are to compile and migrate it.\n\nCompiling. Translating our human-readable Solidity into something the Ethereum Virtual Machine (EVM) understands, which is bytecode.\n\nTo compile, go to the terminal, make sure you are in the root directory that contains the dapp and type:\n\n      truffle compile\n\nIf successful, your output should look like:\n\n      Compiling ./contracts/Migrations.sol...\n      Compiling ./contracts/Adoption.sol...\n      Writing artifacts to ./build/contracts\n\nArtifacts. What are the \"artifacts\" that were just written? Artifacts consist of the following info related to the contract:\n\n      ABI\n      Binary of contract\n      Other related info\n\nMigration. After compiling, migration moves the contract to the blockchain. A migration is a deployment script that's meant to alter the state of your dapp's contracts, moving it from one state to the next. For example, your first migration might just be deploying new code. But over time, other migrations might move data around or replace a contract with a new one.\n\nSee the file named 2_deploy_contracts.js in your migrations/ directory.\n\n*/\n",
  "sourcePath": "/Users/jamie/ethereum/petshop/contracts/Adoption.sol",
  "compiler": {
    "name": "solc",
    "version": "0.5.0+commit.1d4f565a.Emscripten.clang"
  },
  "schemaVersion": "3.0.2",
  "updatedAt": "2019-02-17T20:20:40.897Z",
  "devdoc": {
    "methods": {}
  },
  "userdoc": {
    "methods": {}
  }
}